S1230020CE002033C90DE333C9000033C90000108EC8808E000E2708A6C0A7A0301F26F81F
S1230040108EC88E8E000027066FA0301F26FABD079F5D2F037FCBFE7EF0003460327AAFD8
S1230060E4EE6E8E0000AF62118300002736ECE410AE6230ABE684E764EC6C30ABE684E7A8
S1230080651F20C30001ED62335FE664E16527D8C6FFE762E664E1652504C601E762E66265
S12300A0326635E06F62E662326635E03460327CAFE4AE6C271FCE0000EF62ECE4AE623164
S12300C08BEC6A308BE684E7A4EC62C30001ED6210A36C26E6AEE4326435E03460327CAFD1
S12300E0E4AC6A242CAE6C2722CE0000EF62ECE4AE62318BEC6A308BE684E7A4EC62C3007D
S123010001ED62AE6C3406ACE126E3AEE4326435E0EE6C27F61F30C3FFFFED62EC6AEE62E8
S123012030CBECE431CB2007EC62C3FFFFED62E684E7A4313F301FEE6226EDAEE4326435FB
S11E0140E034603184EE66270E1E0233CB1E02E7803440ACE126F830A435E041
S123015BA6627EF2C31F107EF2C334401F13BDF37335C034401F13BDF37835C03440A664E4
S123017B1F13BDF37A35C034401F10EE64BDF37A35C034401F13BDF38535C034401F13BDC8
S123019BF38A35C034401F13BDF38C35C0A6627EF391A6627EF39334401F13BDF49535C000
S12301BB3440BDF49835C01F987EF4331F987EF434A6627EF3DFA6627EF3D81F987EF3DA0A
S12301DBA6627EF3B71F987EF3B9A6627EF3BE34401F98EE64BDF61F35C03440EE64BDF6FB
S12301FB2235C03440EE64BDF62B35C0BDF5111F8939BDF5171F89391F98BDF57E1F89391A
S123021BA662BDF5841F01391F98BDF5DB1F8939BDF5EF1F01391F98BDF65B1F0139BDF638
S123023B5D1F89391F98BDF6611F8939BDF6631F8939EC627EF54834401F98EE64BDF67F06
S123025B35C034401F98EE64BDF67F35C0A6627EF5521F987EF1B43460A666BDF7A935E02D
S123027B34601F981F12BDF83535E034401F98BDF85E35C0EC627EF87C3440EE64BDF8C72F
S123029B1F8935C03440EE64BDF8D835C0A6627EF256A6627EF25934401F13BDF27D35C0F4
S12302BB3440EE64BDF28435C03440BDF28935C034601F13BDF68735E034401F13BDF68D95
S12302DB35C03440EE64BDF69035C034601F13BDF69235E034401F13BDF92E35C0A6627EE7
S12302FBF2FC1F107EF2FCA6627EF3121F107EF3121F987EF2AB3460A66610AE67EE69BD6E
S123031BF8E5C600C90035E03460A66610AE67EE69BDF8F3C600C90035E03420A66410AEB9
S123033B65BDF8FFC600C90035A0A662BDF5FF1F0139A662BDF6011F01391F98BDF6031F6E
S123035B01393440A664EE65BDF61035C03440EE64BDF61335C03440EE64BDF61635C03482
S123037B201F12BDEA5D35A034201F12BDEA6D35A0342010AE64BDEA7F35A0342010AE64DF
S123039BBDEA8D35A034601F12EE66BDEAA835E03420A664BDE7B535A03420A664BDE7D258
S12003BB35A0BDEA5D1F01393460BDEACF35E03460BDEAB435E03460BDEAF035E08C
S12300006720474345203230313980FD0DF85018AA47414D452054454D504C4154458000F0
S12303D8327DE7616F62E661E1662C0CE666E061E168220E6C62200AE661E066E16822027B
S12303F86C62E665E1672C0CE667E065E169220E6C62200AE665E067E16922026C626FE423
S1230418E662C1022604C601E7E4E6E432633946494C453A80004C494E453A800056414CC2
S123043855453A8000346032E8EA33E4AF4AE74910EF4230E4AF47E6C8224FEDC4E3C8208E
S1230458ED4E6FC82220036CC822EC4EC3FFFFED4EE6D80EC15C2707AE4EACC82026E8E6A2
S1230478C8226AC8224FEDC41F40A3C41F0410EF4510AE453020AF45EC45ED4C6FC81020DD
S123049831EC4EC30001ED4EE6D80EE7C811C160230FE6C811C17A2208E6C811CBE0E7C8BA
S12304B811E6C8104F10AE4C30ABE6C811E7846CC810E6C810E1C82225C7E6C8224F10AE5D
S12304D84C30ABC680E784BDF1AFBEC88CAFC812BD02EFBEC88AAFC814BD02CBBDF192BD60
S12304F802C4BDF2A5C688E7E2AE4AC65ABD09AD3261C688E7E28E0427C632BD09AD3261C3
S1230518AE4CC688E7E2C61EBD09AD3261C688E7E28E042E5FBD09AD3261C688E7E2AEC8FB
S123053823C6ECBD0B1A3261AEC81C8C00001027007FC688E7E28E0435C6CEBD09AD326109
S1230558E649E744C101272AE644C101250DC1022737E644C10327467E05C9AEC81C10AEDC
S1230578C81EE6A43404C688E7E2C6BAAD843262203FAEC81C10AEC81EE6A43404C688E7CF
S1230598E2C6BAAD843262202810AEC81CAEC81EAE84C688E7E2C6BAADA43261201310AEFC
S12305B8C81CAEC81EAE84C688E7E2C6BAADA43261BDF1BAF6C811C4015D1027FF0910EE64
S10C05D84710EE4232E81635E04A
S12305E1C601F7C81FC603F7C8207FC8217FC822C603F7C882C601F7C8847FC8867FC88729
S1230601F6C880C102260CC603F7C883C601F7C88520067FC8837FC8857FC88839327B7E9D
S12306210687BD0773BD0777F6C889C102261EF6C888E7614F1F01E689C884E7E45CE7E4BE
S1230641E6614F1F01E6E4E789C8842039F6C888E7624F1F01E689C882E7E45AE7E4E66211
S12306614F1F01E6E4E789C882E6624F1F01E689C8822603BD06B0F6C880E763F6C888E0C8
S123068163505AF7C888F6C882E7E4F6C883E764E6E4EB645D1026FF8932653947414D454C
S12306A1204F5645528000504C4159455280003420327630E4BDF84FF6C8884F1F01E689D4
S12306C1C886E76830E4E668BD028631E48ECBEB341030A4BD029F3262C696E767BD0D9466
S12306E1BDF2A5C6C0E7E28E069D5FBD09AD3261C69CE7E28E06A8C614BD09AD3261F6C8B7
S1230701885C3404C628E7E2C614BD09E03262F6C8884F1F01E689C882E769C669E7E28EA9
S1230721C0E2E66ABD01AD3261BDF1BA6A67270AF6C811C4085D1027FFA3326A35A0327F67
S1230741C602E7E2C605BD02723261F6C879F7C880F6C87AF7C881F6C80FC4085D270ABDA2
S115076105E1BD061E6FE42004C6FFE7E4E6E43261391E
S12307737FC88939327C201CBDF1AFBEC88CAFE4BD02EFBEC88AAF62BD02CBBDF192BD0215
S1230793C4BDF2A5F6C88927DF326439327FBD073FE7E427F9E6E4326139000103040607C4
S12307B3090A0C0E0F111214151718191B1C1E1F20222324262728292A2C2D2E2F30313244
S12307D33334353636373839393A3B3B3C3C3D3D3E3E3E3F3F3F3F3F3F40403F3F3F3F3F88
S12307F33F3E3E3E3D3D3C3C3B3B3A3939383736363534333231302F2E2D2C2A292827264D
S1230813242322201F1E1C1B191817151412110F0E0C0A0907060403010000FFFDFCFAF9F4
S1230833F7F6F4F2F1EFEEECEBE9E8E7E5E4E2E1E0DEDDDCDAD9D8D7D6D4D3D2D1D0CFCE7F
S1230853CDCCCBCACAC9C8C7C7C6C5C5C4C4C3C3C2C2C2C1C1C1C1C1C1C0C0C1C1C1C1C1FB
S1230873C1C2C2C2C3C3C4C4C5C5C6C7C7C8C9CACACBCCCDCECFD0D1D2D3D4D6D7D8D9DAF6
S1230893DCDDDEE0E1E2E4E5E7E8E9EBECEEEFF1F2F4F6F7F9FAFCFDFF000001030406070E
S12308B3090A0C0E0F111214151718191B1C1E1F20222324262728292A2C2D2E2F30313243
S12308D33334353636373839393A3B3B3C3C3D3D3E3E3E3F3F3F3F3F3F40403F3F3F3F3F87
S12308F33F3E3E3E3D3D3C3C3B3B3A3939383736363534333231302F2E2D2C2A292827264C
S1230913242322201F1E1C1B191817151412110F0E0C0A09070604030100000103040607C9
S1230933090A0C0E0F111214151718191B1C1E1F20222324262728292A2C2D2E2F303132C2
S12309533334353636373839393A3B3B3C3C3D3D3E3E3E3F3F3F3F3F3F40403F3F3F3F3F06
S12309733F3E3E3E3D3D3C3C3B3B3A3939383736363534333231302F2E2D2C2A29282726CB
S1230993242322201F1E1C1B191817151412110F0E0C0A090706040301003277E762AFE4D9
S12309B3E662E764E66BE763C6CCD70CC67FD704E664E766E663E765E666E7E2E666BD0310
S12309D3023261AEE4AF67BD01B23269393271E765C680E769C602E76AE66AE763E6E81267
S12309F34FEDE48E000A3410AE62BD0DB232621F10E762CB30E764E6634FEDE430661E01E8
S1230A13E3E41E01E664E7846A6AE6E8124FEDE48E000A3410AE62BD0DC332621F10E7E845
S1230A3312E66AC1FF26B2E665E76CE6E811E76BC6CCD70CC67FD704E66CE76EE66BE76DF5
S1230A53E66EE7E2E66EBD030232613066BD01B2326F3932E8EDE7676DE8162C06C62DE70D
S1230A73632004C62BE763E663E768C680E76CC603E76D6DE8162C0AE6E816E76250E764E6
S1230A932005E6E816E764E664E76EE66DE765E66E4FEDE48E000A3410AE62BD0DB232623D
S1230AB31F10E762CB30E766E6654FEDE430681E01E3E41E01E666E7846A6DE66E4FEDE455
S1230AD38E000A3410AE62BD0DC332621F10E76E6D6D26B7E667E7E810E6E815E76FC6CCC0
S1230AF3D70CC67FD704E6E810E7E812E66FE7E811E6E812E7E2E6E812BD03023261306872
S1230B13BD01B232E81339342032E8EDE767AF65C680E76DC604E76EE66EE76310AE658E23
S1230B33000A341030A4BD0DB232621F10E762CB30E764E6634FEDE430681E01E3E41E01A8
S1230B53E664E7846A6E10AE658E000A341030A4BD0DC33262AF65E66EC1FF26BBE667E7C0
S1230B73E810E6E817E76FC6CCD70CC67FD704E6E810E7E812E66FE7E811E6E812E7E2E613
S1230B93E812BD030232613068BD01B232E81335A0342032E8E7E76AAF688C00002C06C6A4
S1230BB32DE7632004C62BE763E663E76BC680E7E811C605E7E812AE688C00002C0CAE68EB
S1230BD31F1040508200ED642004AE68AF64EC64EDE813E6E812E76610AEE8138E000A3435
S1230BF31030A4BD0DB232621F10E762CB30E767E6664FEDE4306B1E01E3E41E01E667E7E9
S1230C13846AE81210AEE8138E000A341030A4BD0DC33262AFE8136DE81226B7E66AE7E83E
S1230C3316E6E81DE7E815C6CCD70CC67FD704E6E816E7E818E6E815E7E817E6E818E7E2E0
S1230C53E6E818BD03023261306BBD01B232E81935A032E8ECE765C680E76EC607E76FE639
S1230C736FE763E6E817E7E4C601E4E4E762CB30E764E6634FEDE430661E01E3E41E01E6EC
S1230C9364E7846A6F64E817E66FC1FF26D1E665E7E811E6E816E7E810C6CCD70CC67FD7A7
S1230CB304E6E811E7E813E6E810E7E812E6E813E7E2E6E813BD030232613066BD01B23281
S1120CD3E81439FEE8FEB6808000803F000180FF
S1230CE28E0CD6BFC88A8E0CDEBFC88C397FC8777FC8678E0CDEBFC88C397FC8568E0CD66C
S1230D02BFC88A39327EAFE4BD0CEFAEE4BFC88AC601F7C856326239327EAFE4BDF742BD46
S1230D220CFCAEE4BFC88CC680F7C8673262393273E762AFE4E66258E763ECE4E764E663F8
S1230D426C63E768E664E767E668E7E2E668BD02A83261ECE41F894FE765E663E76AE66580
S1230D62E769E66AE7E2E66ABD02A83261E662CB08E766E76CE66FE76BE66CE7E2E66CBD2E
S1230D8202A83261C607E7E2C638BD02A83261326D39327CBDF1AFBEC88CAFE4BD02EFBE8E
S1230DA2C88AAF62BD02CBBDF192BD02C4326439EC6226037EF0003410BD0DD132621F0136
S1230DC239EC6226037EF0003410BD0DD13590327D6F606C604D2B066C60584920F8ED61B0
S1230DE2EC656F656F66A3612406E3611CFE20021A0169666965646166626A6026E8326393
S1040E0239B2
S9030000FC
